:1000000080E690E00E9412806AE070E080E090E07C
:100010000E94138048EE53E060E070E080E00E94B0
:1000200009800895CF93DF93CDB7DEB72197DEBF68
:10003000CDBFCE0101960E940A8087E890E00E9421
:10004000128069817727882799270E9413808981E8
:100050008A3048F48F5F898348EE53E060E070E0B7
:100060000E94098004C00E9410800E940380219693
:0A007000DEBFCDBFDF91CF910895F0
:10007A00504554524F533A2054657374696E672041
:10008A0074696D65727320666F72204D41585F54B2
:10009A00494D4552533A00504554524F533A205411
:0E00AA00696D656F75742074696D65723A003A
:00000001FF
