:100000000F931F938EEB90E00E94128000E010E0AF
:1000100020E030E042E050E062E37CEC80E090E001
:100020000E9401801F910F910895CF93DF93CDB768
:10003000DEB7A897DEBFCDBFAE01475F5F4FBE0101
:100040006B5F7F4FCE0101960E94048080E690E0B6
:100050000E941280CE010D960E940880CE010E965D
:100060000E941280A896DEBFCDBFDF91CF91089588
:100070000F931F93CF93DF93CDB7DEB76D97DEBF9E
:10008000CDBFCE0101960E940A8086E790E00E94D3
:1000900012808E010D5F1F4F898199279F938F9347
:1000A0008AE890E09F938F938FE990E09F938F93DE
:1000B0001F930F930E94A200F80101900020E9F71E
:1000C000E01BEA836091D2007091D3008091D4004C
:1000D0009091D50020E0AE014E5F5F4F0E940580F9
:1000E00089812DB73EB7285F3F4F3EBF2DBF8B3074
:1000F00028F00E9410800E94038008C08F5F8983CF
:1001000040ED57E060E070E00E9409806D96DEBF30
:10011000CDBFDF91CF911F910F91089589EA90E0B3
:100120000E9412804EEC50E06AEC70E082ED90E0AC
:100130000E94048040ED57E060E070E080E00E94A3
:1001400009800895A0E1B0E0E7EAF0E087C30F89F5
:10015000188D86E08E831C830B838FEF9FE7988733
:100160008F834C2F5D2F455E5F4F5A834983698D86
:100170007A8D8C2F9D2F03960AD029853A85020F00
:10018000131FF12FE02F1082E4E0609683C3A7E1F4
:10019000B0E0ECECF0E054C388249924AA24BB24FA
:1001A000482E592E7C8B6B8B642E752EF92FE82FE1
:1001B00017821682838181FD03C08FEF9FEFB0C24B
:1001C000CC24DD242C2F3D2F2F5F3F4F3F8B2E8BD8
:1001D00093C2C0FE76C2832D80538A30F0F430E3A0
:1001E000331641F48D85882329F4C3FC03C0E0E075
:1001F000F1E077C0FD858F2F992787FD90956AE004
:1002000070E0E5D28053830D8D8787FF02C02FE712
:100210002D87C3FC6BC22D8469C23D2D2C2D287007
:100220003070C3FE05C08D85882311F491E09D8751
:10023000E7E6E3156CF1F5E63F160CF068C083E5E0
:10024000381609F48DC08315BCF09BE2391609F409
:1002500042C093154CF0E0E23E1609F440C0F3E2D0
:100260003F1609F026C243C02DE23216E9F13EE204
:10027000331609F01EC240C083E6381609F44DC09B
:1002800083150CF485C098E5391609F012C220C018
:10029000E0E73E1609F4AAC0E3155CF0FCE63F1661
:1002A00089F12FE6321689F039E6331609F001C2DA
:1002B0006FC085E7381609F4A1C098E7391641F0F8
:1002C000E3E73E1609F0F5C131C0F8E0F88B96C0BF
:1002D00020E1288B93C080E190E0C82AD92AE0E28F
:1002E000F0E0CE2ADF2A02C220E830E00DC080E430
:1002F00090E0C82AD92AFAC1E8E0F0E0CE2ADF2A45
:100300001D86F4C124E030E0C22AD32AEFC13FE3C6
:10031000832E2A9423E6322E4DC1F72DE62D8080C0
:100320002A9422E030E0620E731E44C1F72DE62DC0
:10033000A081B1818A2E9B2E232B49F0FD856F2F42
:10034000772767FD70958A2F9B2F05D219C0FB2F49
:10035000EA2F01900020E9F73197EA1BE88B11C0E2
:10036000F72DE62D80819181882E992E232B39F04F
:10037000FD856F2F772767FD7095E0D101C0D3D140
:10038000888B22E030E0620E731E3889231A12C176
:10039000C2FE09C0F72DE62D80819181A281B38133
:1003A00024E030E00AC0F72DE62D80819181AA2754
:1003B00097FDA095BA2F22E030E0620E731E882EC2
:1003C000992EAA2EBB2EB7FF0CC082E090E0C82A5F
:1003D000D92AB094A09490948094811C911CA11C63
:1003E000B11CEFEBFFEFCE22DF2225C020E430E08E
:1003F000C22AD32A98E7392E30E1388BC2FE09C0D1
:10040000F72DE62D80819181A281B38124E030E037
:1004100008C0F72DE62D80819181AA27BB2722E015
:1004200030E0620E731E882E992EAA2EBB2E8FEC02
:100430009FEFC822D9221B2D0A2DF92CE82CFD2F65
:10044000EC2F3196FF87EE87F8898F2E9924AA2406
:10045000BB24232D21522D8B912F802F7F2D6E2D8C
:100460005B2D4A2D392D282DC4D16A301CF03D89D1
:10047000630F01C0605DEE85FF856193FF87EE87A6
:10048000912F802F7F2D6E2D5B2D4A2D392D282DFC
:10049000B0D1E22EF32E042F152F21153105410581
:1004A0005105D1F688249924AA24BB244E85FE89BF
:1004B0004F1B842E9D2D8C2D82739070892B09F0FB
:1004C0002A94C6FE07C02889203111F482E001C0B9
:1004D00081E0281AC3FE12C08D85282F332727FDFF
:1004E0003095842F9927821793072CF0E7EFFFEFC1
:1004F000CE22DF2203C0FD85F41BFD871D2D0C2DB0
:1005000008701070C3FE03C02D85221A01C0241A82
:100510009D2D8C2D80789170892B31F00AC0752D1E
:10052000642D80E290E023D12A94822D8F5F1816EB
:10053000B4F3C1FE05C0752D642D8DE290E00DC0B1
:10054000C4FE05C0752D642D8BE290E006C0C5FE8B
:1005500005C0752D642D80E290E009D1C6FE0FC064
:10056000752D642D80E390E002D13889303139F463
:10057000752D642D832D992787FD9095F8D0D0FC9B
:1005800006C00AC0752D642D80E390E0F0D02A9457
:10059000822D8F5F1816B4F3012B31F40BC0752D2B
:1005A000642D80E390E0E3D08D8581508D878F5F4F
:1005B0001816ACF3FD2DEC2DE078F070FA8BE98B7A
:1005C000C7FE06C00AC0752D642D80E290E0CFD032
:1005D0002A94822D8F5F1816B4F3F3E63F1641F488
:1005E000752D642D882D992787FD9095C0D051C019
:1005F00023E73216D9F4D92CC82CF92CE82C188909
:100600000BC0FF2DEE2D8191EE2EFF2E752D642D4A
:10061000992787FD9095ABD0115098F78C2C9D2C85
:10062000F8898F0E911C2FEF288B33C033E53316DA
:1006300019F00E851F8526C0D92CC82C192D082D20
:10064000F8880AC0F12FE02FC895802D752D642DF4
:1006500099278DD00F5F1F4FFA94FFEFFF1691F788
:100660008C2C9D2C2889820E911CF88B12C0F12FA6
:10067000E02F82910E2F1F2F752D642D992787FD56
:10068000909575D02E893F890217130781F71F8730
:100690000E8789899A89892B31F426C0752D642D9E
:1006A00080E290E064D02A94822D8F5F1816B4F314
:1006B0001BC0752D642D832D992787FD909557D0EC
:1006C00013C095E2391641F4EAE0E88B22241D8636
:1006D00081E0C82ED12C0AC0752D642D832D992759
:1006E00087FD909544D002C0CC24DD242B893C8921
:1006F0002F5F3F4F3C8B2B8BF52DE42D838183FFA8
:1007000005C0EB89FC89C895302C03C0EB89FC89B6
:100710003080332009F05DCDF52DE42D8681978161
:10072000E2E16796A9C0E82FF92FC895319600201D
:10073000E1F7809590958E0F9F1F0895E82FF92F70
:10074000C8953196615070400110D0F78095909512
:100750008E0F9F1F0895E82FF92F61507040019070
:100760000110D8F7809590958E0F9F1F08950F93D5
:100770001F93CF93DF93082F192FD72FC62F8B816D
:10078000992781FF1BC082FF0DC02E813F818C8184
:100790009D812817390764F4E881F9810193F98371
:1007A000E88306C0E885F985802F0995892B31F407
:1007B0008E819F8101969F838E8302C00FEF1FEF72
:1007C000912F802FDF91CF911F910F910895552781
:1007D000002480FF02C0060E571F660F771F6115A9
:1007E000710521F096958795009799F7952F802DA3
:1007F0000895A1E21A2EAA1BBB1BEA2FFB2F0DC0E6
:10080000AA1FBB1FEE1FFF1FA217B307E407F507C0
:1008100020F0A21BB30BE40BF50B661F771F881F9C
:10082000991F1A9469F76095709580959095262F79
:10083000372F482F592F6A2F7B2F8E2F9F2F0895E8
:100840002F923F924F925F926F927F928F929F92E0
:10085000AF92BF92CF92DF92EF92FF920F931F93CE
:10086000CF93DF93CDB7DEB7CA1BDB0B0FB6F8947F
:10087000DEBF0FBECDBF09942A88398848885F84BF
:100880006E847D848C849B84AA84B984C884DF8030
:10089000EE80FD800C811B81AA81B981CE0FD11D14
:1008A0000FB6F894DEBF0FBECDBFCA2FDB2F089561
:1008B000726F6F743A207265706F72742061727219
:1008C000697665640A00726F6F743A2073656E64AE
:1008D00020636F6D6D616E640A00504554524F5332
:1008E0003A206D65737361676520746573740025C4
:1008F00073202D2D2D20256400726F6F743A2063B4
:1009000068696C6420637265617465640A00726F63
:100910006F743A20696E69740A00000000000000DC
:06092000000000000000D1
:00000001FF
