:100000000F931F938DE790E00E94128000E010E0B4
:1000100020E030E048E853E162E27CEC80E090E0F0
:100020000E9401801F910F9108950E9410800E94EC
:1000300003800895CF93DF93CDB7DEB72C97DEBF53
:10004000CDBFAE01475F5F4FBE016B5F7F4FCE01FB
:1000500001960E94048080E690E00E9412806981EF
:100060007A818B819C810E9413806D817E818F813A
:1000700098850E9413802C96DEBFCDBFDF91CF9173
:020080000895E1
:10008200504554524F533A20726F6F743A2063684E
:10009200696C6420637265617465640A005045543A
:1000A200524F533A20726F6F743A204372656174F3
:0A00B20065206368696C640A0000B1
:00000001FF
