:100000000F931F9384EA90E00E94128000E010E0BA
:1000100020E030E042E050E062E67CEC80E090E0FE
:100020000E9401801F910F910895CF93DF93CDB768
:10003000DEB7A897DEBFCDBFAE01475F5F4FBE0101
:100040006B5F7F4FCE0101960E94048080E690E0B6
:100050000E941280CE010D960E940880CE010E965D
:100060000E9412800E9410800E940380A896DEBF2A
:10007000CDBFDF91CF9108950F931F93CF93DF935F
:10008000CDB7DEB76C97DEBFCDBF86E790E00E94AC
:10009000128044EB50E060EB70E088EB90E00E944F
:1000A00004808BE890E00E9412808E010E5F1F4F4B
:1000B0006FE970E0C8010E947900F801019000200A
:1000C000E9F7E01BE9836091B8007091B900809175
:1000D000BA009091BB0020E0AE014F5F5F4F0E94DD
:1000E00005806C96DEBFCDBFDF91CF911F910F9140
:1000F0000895E62FF72FA82FB92F01900D92002019
:04010000E1F7089586
:10010400726F6F743A207265706F727420617272CC
:10011400697665640A00726F6F743A206368696C6B
:100124006420637265617465640A00726F6F743A67
:100134002073656E6420636F6D6D616E640A007078
:10014400696E6700726F6F743A20696E69740A0091
:0C0154000000000000000000000000009F
:00000001FF
